{
  "_format": "hh-sol-artifact-1",
  "contractName": "MyTokenV2",
  "sourceName": "contracts/MyTokenV2.sol",
  "abi": [
    {
      "inputs": [],
      "stateMutability": "nonpayable",
      "type": "constructor"
    },
    {
      "anonymous": false,
      "inputs": [
        {
          "indexed": false,
          "internalType": "address",
          "name": "previousAdmin",
          "type": "address"
        },
        {
          "indexed": false,
          "internalType": "address",
          "name": "newAdmin",
          "type": "address"
        }
      ],
      "name": "AdminChanged",
      "type": "event"
    },
    {
      "anonymous": false,
      "inputs": [
        {
          "indexed": true,
          "internalType": "address",
          "name": "owner",
          "type": "address"
        },
        {
          "indexed": true,
          "internalType": "address",
          "name": "spender",
          "type": "address"
        },
        {
          "indexed": false,
          "internalType": "uint256",
          "name": "value",
          "type": "uint256"
        }
      ],
      "name": "Approval",
      "type": "event"
    },
    {
      "anonymous": false,
      "inputs": [
        {
          "indexed": true,
          "internalType": "address",
          "name": "beacon",
          "type": "address"
        }
      ],
      "name": "BeaconUpgraded",
      "type": "event"
    },
    {
      "anonymous": false,
      "inputs": [
        {
          "indexed": false,
          "internalType": "uint8",
          "name": "version",
          "type": "uint8"
        }
      ],
      "name": "Initialized",
      "type": "event"
    },
    {
      "anonymous": false,
      "inputs": [
        {
          "indexed": true,
          "internalType": "address",
          "name": "previousOwner",
          "type": "address"
        },
        {
          "indexed": true,
          "internalType": "address",
          "name": "newOwner",
          "type": "address"
        }
      ],
      "name": "OwnershipTransferred",
      "type": "event"
    },
    {
      "anonymous": false,
      "inputs": [
        {
          "indexed": true,
          "internalType": "address",
          "name": "from",
          "type": "address"
        },
        {
          "indexed": true,
          "internalType": "address",
          "name": "to",
          "type": "address"
        },
        {
          "indexed": false,
          "internalType": "uint256",
          "name": "value",
          "type": "uint256"
        }
      ],
      "name": "Transfer",
      "type": "event"
    },
    {
      "anonymous": false,
      "inputs": [
        {
          "indexed": true,
          "internalType": "address",
          "name": "implementation",
          "type": "address"
        }
      ],
      "name": "Upgraded",
      "type": "event"
    },
    {
      "inputs": [],
      "name": "a",
      "outputs": [
        {
          "internalType": "uint256",
          "name": "",
          "type": "uint256"
        }
      ],
      "stateMutability": "view",
      "type": "function"
    },
    {
      "inputs": [
        {
          "internalType": "address",
          "name": "owner",
          "type": "address"
        },
        {
          "internalType": "address",
          "name": "spender",
          "type": "address"
        }
      ],
      "name": "allowance",
      "outputs": [
        {
          "internalType": "uint256",
          "name": "",
          "type": "uint256"
        }
      ],
      "stateMutability": "view",
      "type": "function"
    },
    {
      "inputs": [
        {
          "internalType": "address",
          "name": "spender",
          "type": "address"
        },
        {
          "internalType": "uint256",
          "name": "amount",
          "type": "uint256"
        }
      ],
      "name": "approve",
      "outputs": [
        {
          "internalType": "bool",
          "name": "",
          "type": "bool"
        }
      ],
      "stateMutability": "nonpayable",
      "type": "function"
    },
    {
      "inputs": [
        {
          "internalType": "address",
          "name": "account",
          "type": "address"
        }
      ],
      "name": "balanceOf",
      "outputs": [
        {
          "internalType": "uint256",
          "name": "",
          "type": "uint256"
        }
      ],
      "stateMutability": "view",
      "type": "function"
    },
    {
      "inputs": [],
      "name": "decimals",
      "outputs": [
        {
          "internalType": "uint8",
          "name": "",
          "type": "uint8"
        }
      ],
      "stateMutability": "view",
      "type": "function"
    },
    {
      "inputs": [
        {
          "internalType": "address",
          "name": "spender",
          "type": "address"
        },
        {
          "internalType": "uint256",
          "name": "subtractedValue",
          "type": "uint256"
        }
      ],
      "name": "decreaseAllowance",
      "outputs": [
        {
          "internalType": "bool",
          "name": "",
          "type": "bool"
        }
      ],
      "stateMutability": "nonpayable",
      "type": "function"
    },
    {
      "inputs": [],
      "name": "getA",
      "outputs": [
        {
          "internalType": "uint256",
          "name": "",
          "type": "uint256"
        }
      ],
      "stateMutability": "view",
      "type": "function"
    },
    {
      "inputs": [],
      "name": "getA_increse",
      "outputs": [
        {
          "internalType": "uint256",
          "name": "",
          "type": "uint256"
        }
      ],
      "stateMutability": "view",
      "type": "function"
    },
    {
      "inputs": [
        {
          "internalType": "address",
          "name": "spender",
          "type": "address"
        },
        {
          "internalType": "uint256",
          "name": "addedValue",
          "type": "uint256"
        }
      ],
      "name": "increaseAllowance",
      "outputs": [
        {
          "internalType": "bool",
          "name": "",
          "type": "bool"
        }
      ],
      "stateMutability": "nonpayable",
      "type": "function"
    },
    {
      "inputs": [
        {
          "internalType": "string",
          "name": "name",
          "type": "string"
        },
        {
          "internalType": "string",
          "name": "symbol",
          "type": "string"
        }
      ],
      "name": "initialize",
      "outputs": [],
      "stateMutability": "nonpayable",
      "type": "function"
    },
    {
      "inputs": [],
      "name": "name",
      "outputs": [
        {
          "internalType": "string",
          "name": "",
          "type": "string"
        }
      ],
      "stateMutability": "view",
      "type": "function"
    },
    {
      "inputs": [],
      "name": "owner",
      "outputs": [
        {
          "internalType": "address",
          "name": "",
          "type": "address"
        }
      ],
      "stateMutability": "view",
      "type": "function"
    },
    {
      "inputs": [],
      "name": "proxiableUUID",
      "outputs": [
        {
          "internalType": "bytes32",
          "name": "",
          "type": "bytes32"
        }
      ],
      "stateMutability": "view",
      "type": "function"
    },
    {
      "inputs": [],
      "name": "renounceOwnership",
      "outputs": [],
      "stateMutability": "nonpayable",
      "type": "function"
    },
    {
      "inputs": [],
      "name": "symbol",
      "outputs": [
        {
          "internalType": "string",
          "name": "",
          "type": "string"
        }
      ],
      "stateMutability": "view",
      "type": "function"
    },
    {
      "inputs": [],
      "name": "totalSupply",
      "outputs": [
        {
          "internalType": "uint256",
          "name": "",
          "type": "uint256"
        }
      ],
      "stateMutability": "view",
      "type": "function"
    },
    {
      "inputs": [
        {
          "internalType": "address",
          "name": "to",
          "type": "address"
        },
        {
          "internalType": "uint256",
          "name": "amount",
          "type": "uint256"
        }
      ],
      "name": "transfer",
      "outputs": [
        {
          "internalType": "bool",
          "name": "",
          "type": "bool"
        }
      ],
      "stateMutability": "nonpayable",
      "type": "function"
    },
    {
      "inputs": [
        {
          "internalType": "address",
          "name": "from",
          "type": "address"
        },
        {
          "internalType": "address",
          "name": "to",
          "type": "address"
        },
        {
          "internalType": "uint256",
          "name": "amount",
          "type": "uint256"
        }
      ],
      "name": "transferFrom",
      "outputs": [
        {
          "internalType": "bool",
          "name": "",
          "type": "bool"
        }
      ],
      "stateMutability": "nonpayable",
      "type": "function"
    },
    {
      "inputs": [
        {
          "internalType": "address",
          "name": "newOwner",
          "type": "address"
        }
      ],
      "name": "transferOwnership",
      "outputs": [],
      "stateMutability": "nonpayable",
      "type": "function"
    },
    {
      "inputs": [
        {
          "internalType": "address",
          "name": "newImplementation",
          "type": "address"
        }
      ],
      "name": "upgradeTo",
      "outputs": [],
      "stateMutability": "nonpayable",
      "type": "function"
    },
    {
      "inputs": [
        {
          "internalType": "address",
          "name": "newImplementation",
          "type": "address"
        },
        {
          "internalType": "bytes",
          "name": "data",
          "type": "bytes"
        }
      ],
      "name": "upgradeToAndCall",
      "outputs": [],
      "stateMutability": "payable",
      "type": "function"
    }
  ],
  "bytecode": "0x60a06040523073ffffffffffffffffffffffffffffffffffffffff1660809073ffffffffffffffffffffffffffffffffffffffff1681525034801561004357600080fd5b50608051612f8961007b6000396000818161060a015281816106980152818161098501528181610a130152610ac30152612f896000f3fe60806040526004361061012a5760003560e01c806352d1902d116100ab57806395d89b411161006f57806395d89b41146103d5578063a457c2d714610400578063a9059cbb1461043d578063d46300fd1461047a578063dd62ed3e146104a5578063f2fde38b146104e25761012a565b806352d1902d1461030057806370a082311461032b578063715018a6146103685780638da5cb5b1461037f5780638eef9c60146103aa5761012a565b8063313ce567116100f2578063313ce5671461022a5780633659cfe614610255578063395093511461027e5780634cd88b76146102bb5780634f1ef286146102e45761012a565b806306fdde031461012f578063095ea7b31461015a5780630dbe671f1461019757806318160ddd146101c257806323b872dd146101ed575b600080fd5b34801561013b57600080fd5b5061014461050b565b6040516101519190611ba3565b60405180910390f35b34801561016657600080fd5b50610181600480360381019061017c9190611c6d565b61059d565b60405161018e9190611cc8565b60405180910390f35b3480156101a357600080fd5b506101ac6105c0565b6040516101b99190611cf2565b60405180910390f35b3480156101ce57600080fd5b506101d76105c6565b6040516101e49190611cf2565b60405180910390f35b3480156101f957600080fd5b50610214600480360381019061020f9190611d0d565b6105d0565b6040516102219190611cc8565b60405180910390f35b34801561023657600080fd5b5061023f6105ff565b60405161024c9190611d7c565b60405180910390f35b34801561026157600080fd5b5061027c60048036038101906102779190611d97565b610608565b005b34801561028a57600080fd5b506102a560048036038101906102a09190611c6d565b610790565b6040516102b29190611cc8565b60405180910390f35b3480156102c757600080fd5b506102e260048036038101906102dd9190611ef9565b6107c7565b005b6102fe60048036038101906102f99190612012565b610983565b005b34801561030c57600080fd5b50610315610abf565b6040516103229190612087565b60405180910390f35b34801561033757600080fd5b50610352600480360381019061034d9190611d97565b610b78565b60405161035f9190611cf2565b60405180910390f35b34801561037457600080fd5b5061037d610bc1565b005b34801561038b57600080fd5b50610394610bd5565b6040516103a191906120b1565b60405180910390f35b3480156103b657600080fd5b506103bf610bff565b6040516103cc9190611cf2565b60405180910390f35b3480156103e157600080fd5b506103ea610c15565b6040516103f79190611ba3565b60405180910390f35b34801561040c57600080fd5b5061042760048036038101906104229190611c6d565b610ca7565b6040516104349190611cc8565b60405180910390f35b34801561044957600080fd5b50610464600480360381019061045f9190611c6d565b610d1e565b6040516104719190611cc8565b60405180910390f35b34801561048657600080fd5b5061048f610d41565b60405161049c9190611cf2565b60405180910390f35b3480156104b157600080fd5b506104cc60048036038101906104c791906120cc565b610d57565b6040516104d99190611cf2565b60405180910390f35b3480156104ee57600080fd5b5061050960048036038101906105049190611d97565b610dde565b005b60606036805461051a9061213b565b80601f01602080910402602001604051908101604052809291908181526020018280546105469061213b565b80156105935780601f1061056857610100808354040283529160200191610593565b820191906000526020600020905b81548152906001019060200180831161057657829003601f168201915b5050505050905090565b6000806105a8610e61565b90506105b5818585610e69565b600191505092915050565b60fb5481565b6000603554905090565b6000806105db610e61565b90506105e8858285611032565b6105f38585856110be565b60019150509392505050565b60006012905090565b7f000000000000000000000000000000000000000000000000000000000000000073ffffffffffffffffffffffffffffffffffffffff163073ffffffffffffffffffffffffffffffffffffffff1603610696576040517f08c379a000000000000000000000000000000000000000000000000000000000815260040161068d906121de565b60405180910390fd5b7f000000000000000000000000000000000000000000000000000000000000000073ffffffffffffffffffffffffffffffffffffffff166106d5611337565b73ffffffffffffffffffffffffffffffffffffffff161461072b576040517f08c379a000000000000000000000000000000000000000000000000000000000815260040161072290612270565b60405180910390fd5b6107348161138e565b61078d81600067ffffffffffffffff81111561075357610752611dce565b5b6040519080825280601f01601f1916602001820160405280156107855781602001600182028036833780820191505090505b506000611399565b50565b60008061079b610e61565b90506107bc8185856107ad8589610d57565b6107b791906122bf565b610e69565b600191505092915050565b60008060019054906101000a900460ff161590508080156107f85750600160008054906101000a900460ff1660ff16105b80610825575061080730611507565b1580156108245750600160008054906101000a900460ff1660ff16145b5b610864576040517f08c379a000000000000000000000000000000000000000000000000000000000815260040161085b90612365565b60405180910390fd5b60016000806101000a81548160ff021916908360ff16021790555080156108a1576001600060016101000a81548160ff0219169083151502179055505b6109156040518060400160405280600a81526020017f4342444320746f6b656e000000000000000000000000000000000000000000008152506040518060400160405280600481526020017f434244430000000000000000000000000000000000000000000000000000000081525061152a565b61091d611587565b6109256115e0565b801561097e5760008060016101000a81548160ff0219169083151502179055507f7f26b83ff96e1f2b6a682f133852f6798a09c465da95921460cefb3847402498600160405161097591906123ca565b60405180910390a15b505050565b7f000000000000000000000000000000000000000000000000000000000000000073ffffffffffffffffffffffffffffffffffffffff163073ffffffffffffffffffffffffffffffffffffffff1603610a11576040517f08c379a0000000000000000000000000000000000000000000000000000000008152600401610a08906121de565b60405180910390fd5b7f000000000000000000000000000000000000000000000000000000000000000073ffffffffffffffffffffffffffffffffffffffff16610a50611337565b73ffffffffffffffffffffffffffffffffffffffff1614610aa6576040517f08c379a0000000000000000000000000000000000000000000000000000000008152600401610a9d90612270565b60405180910390fd5b610aaf8261138e565b610abb82826001611399565b5050565b60007f000000000000000000000000000000000000000000000000000000000000000073ffffffffffffffffffffffffffffffffffffffff163073ffffffffffffffffffffffffffffffffffffffff1614610b4f576040517f08c379a0000000000000000000000000000000000000000000000000000000008152600401610b4690612457565b60405180910390fd5b7f360894a13ba1a3210667c828492db98dca3e2076cc3735a920a3ca505d382bbc60001b905090565b6000603360008373ffffffffffffffffffffffffffffffffffffffff1673ffffffffffffffffffffffffffffffffffffffff168152602001908152602001600020549050919050565b610bc9611631565b610bd360006116af565b565b600060c960009054906101000a900473ffffffffffffffffffffffffffffffffffffffff16905090565b6000600a60fb54610c1091906122bf565b905090565b606060378054610c249061213b565b80601f0160208091040260200160405190810160405280929190818152602001828054610c509061213b565b8015610c9d5780601f10610c7257610100808354040283529160200191610c9d565b820191906000526020600020905b815481529060010190602001808311610c8057829003601f168201915b5050505050905090565b600080610cb2610e61565b90506000610cc08286610d57565b905083811015610d05576040517f08c379a0000000000000000000000000000000000000000000000000000000008152600401610cfc906124e9565b60405180910390fd5b610d128286868403610e69565b60019250505092915050565b600080610d29610e61565b9050610d368185856110be565b600191505092915050565b6000600560fb54610d5291906122bf565b905090565b6000603460008473ffffffffffffffffffffffffffffffffffffffff1673ffffffffffffffffffffffffffffffffffffffff16815260200190815260200160002060008373ffffffffffffffffffffffffffffffffffffffff1673ffffffffffffffffffffffffffffffffffffffff16815260200190815260200160002054905092915050565b610de6611631565b600073ffffffffffffffffffffffffffffffffffffffff168173ffffffffffffffffffffffffffffffffffffffff1603610e55576040517f08c379a0000000000000000000000000000000000000000000000000000000008152600401610e4c9061257b565b60405180910390fd5b610e5e816116af565b50565b600033905090565b600073ffffffffffffffffffffffffffffffffffffffff168373ffffffffffffffffffffffffffffffffffffffff1603610ed8576040517f08c379a0000000000000000000000000000000000000000000000000000000008152600401610ecf9061260d565b60405180910390fd5b600073ffffffffffffffffffffffffffffffffffffffff168273ffffffffffffffffffffffffffffffffffffffff1603610f47576040517f08c379a0000000000000000000000000000000000000000000000000000000008152600401610f3e9061269f565b60405180910390fd5b80603460008573ffffffffffffffffffffffffffffffffffffffff1673ffffffffffffffffffffffffffffffffffffffff16815260200190815260200160002060008473ffffffffffffffffffffffffffffffffffffffff1673ffffffffffffffffffffffffffffffffffffffff168152602001908152602001600020819055508173ffffffffffffffffffffffffffffffffffffffff168373ffffffffffffffffffffffffffffffffffffffff167f8c5be1e5ebec7d5bd14f71427d1e84f3dd0314c0f7b2291e5b200ac8c7c3b925836040516110259190611cf2565b60405180910390a3505050565b600061103e8484610d57565b90507fffffffffffffffffffffffffffffffffffffffffffffffffffffffffffffffff81146110b857818110156110aa576040517f08c379a00000000000000000000000000000000000000000000000000000000081526004016110a19061270b565b60405180910390fd5b6110b78484848403610e69565b5b50505050565b600073ffffffffffffffffffffffffffffffffffffffff168373ffffffffffffffffffffffffffffffffffffffff160361112d576040517f08c379a00000000000000000000000000000000000000000000000000000000081526004016111249061279d565b60405180910390fd5b600073ffffffffffffffffffffffffffffffffffffffff168273ffffffffffffffffffffffffffffffffffffffff160361119c576040517f08c379a00000000000000000000000000000000000000000000000000000000081526004016111939061282f565b60405180910390fd5b6111a7838383611775565b6000603360008573ffffffffffffffffffffffffffffffffffffffff1673ffffffffffffffffffffffffffffffffffffffff1681526020019081526020016000205490508181101561122e576040517f08c379a0000000000000000000000000000000000000000000000000000000008152600401611225906128c1565b60405180910390fd5b818103603360008673ffffffffffffffffffffffffffffffffffffffff1673ffffffffffffffffffffffffffffffffffffffff1681526020019081526020016000208190555081603360008573ffffffffffffffffffffffffffffffffffffffff1673ffffffffffffffffffffffffffffffffffffffff168152602001908152602001600020600082825401925050819055508273ffffffffffffffffffffffffffffffffffffffff168473ffffffffffffffffffffffffffffffffffffffff167fddf252ad1be2c89b69c2b068fc378daa952ba7f163c4a11628f55a4df523b3ef8460405161131e9190611cf2565b60405180910390a361133184848461177a565b50505050565b60006113657f360894a13ba1a3210667c828492db98dca3e2076cc3735a920a3ca505d382bbc60001b61177f565b60000160009054906101000a900473ffffffffffffffffffffffffffffffffffffffff16905090565b611396611631565b50565b6113c57f4910fdfa16fed3260ed0e7147f7cc6da11a60208b5b9406d12a635614ffd914360001b611789565b60000160009054906101000a900460ff16156113e9576113e483611793565b611502565b8273ffffffffffffffffffffffffffffffffffffffff166352d1902d6040518163ffffffff1660e01b8152600401602060405180830381865afa92505050801561145157506040513d601f19601f8201168201806040525081019061144e919061290d565b60015b611490576040517f08c379a0000000000000000000000000000000000000000000000000000000008152600401611487906129ac565b60405180910390fd5b7f360894a13ba1a3210667c828492db98dca3e2076cc3735a920a3ca505d382bbc60001b81146114f5576040517f08c379a00000000000000000000000000000000000000000000000000000000081526004016114ec90612a3e565b60405180910390fd5b5061150183838361184c565b5b505050565b6000808273ffffffffffffffffffffffffffffffffffffffff163b119050919050565b600060019054906101000a900460ff16611579576040517f08c379a000000000000000000000000000000000000000000000000000000000815260040161157090612ad0565b60405180910390fd5b6115838282611878565b5050565b600060019054906101000a900460ff166115d6576040517f08c379a00000000000000000000000000000000000000000000000000000000081526004016115cd90612ad0565b60405180910390fd5b6115de6118eb565b565b600060019054906101000a900460ff1661162f576040517f08c379a000000000000000000000000000000000000000000000000000000000815260040161162690612ad0565b60405180910390fd5b565b611639610e61565b73ffffffffffffffffffffffffffffffffffffffff16611657610bd5565b73ffffffffffffffffffffffffffffffffffffffff16146116ad576040517f08c379a00000000000000000000000000000000000000000000000000000000081526004016116a490612b3c565b60405180910390fd5b565b600060c960009054906101000a900473ffffffffffffffffffffffffffffffffffffffff1690508160c960006101000a81548173ffffffffffffffffffffffffffffffffffffffff021916908373ffffffffffffffffffffffffffffffffffffffff1602179055508173ffffffffffffffffffffffffffffffffffffffff168173ffffffffffffffffffffffffffffffffffffffff167f8be0079c531659141344cd1fd0a4f28419497f9722a3daafe3b4186f6b6457e060405160405180910390a35050565b505050565b505050565b6000819050919050565b6000819050919050565b61179c81611507565b6117db576040517f08c379a00000000000000000000000000000000000000000000000000000000081526004016117d290612bce565b60405180910390fd5b806118087f360894a13ba1a3210667c828492db98dca3e2076cc3735a920a3ca505d382bbc60001b61177f565b60000160006101000a81548173ffffffffffffffffffffffffffffffffffffffff021916908373ffffffffffffffffffffffffffffffffffffffff16021790555050565b6118558361194c565b6000825111806118625750805b1561187357611871838361199b565b505b505050565b600060019054906101000a900460ff166118c7576040517f08c379a00000000000000000000000000000000000000000000000000000000081526004016118be90612ad0565b60405180910390fd5b81603690816118d69190612d90565b5080603790816118e69190612d90565b505050565b600060019054906101000a900460ff1661193a576040517f08c379a000000000000000000000000000000000000000000000000000000000815260040161193190612ad0565b60405180910390fd5b61194a611945610e61565b6116af565b565b61195581611793565b8073ffffffffffffffffffffffffffffffffffffffff167fbc7cd75a20ee27fd9adebab32041f755214dbc6bffa90cc0225b39da2e5c2d3b60405160405180910390a250565b60606119c08383604051806060016040528060278152602001612f2d602791396119c8565b905092915050565b60606000808573ffffffffffffffffffffffffffffffffffffffff16856040516119f29190612ea9565b600060405180830381855af49150503d8060008114611a2d576040519150601f19603f3d011682016040523d82523d6000602084013e611a32565b606091505b5091509150611a4386838387611a4e565b925050509392505050565b60608315611ab0576000835103611aa857611a6885611507565b611aa7576040517f08c379a0000000000000000000000000000000000000000000000000000000008152600401611a9e90612f0c565b60405180910390fd5b5b829050611abb565b611aba8383611ac3565b5b949350505050565b600082511115611ad65781518083602001fd5b806040517f08c379a0000000000000000000000000000000000000000000000000000000008152600401611b0a9190611ba3565b60405180910390fd5b600081519050919050565b600082825260208201905092915050565b60005b83811015611b4d578082015181840152602081019050611b32565b60008484015250505050565b6000601f19601f8301169050919050565b6000611b7582611b13565b611b7f8185611b1e565b9350611b8f818560208601611b2f565b611b9881611b59565b840191505092915050565b60006020820190508181036000830152611bbd8184611b6a565b905092915050565b6000604051905090565b600080fd5b600080fd5b600073ffffffffffffffffffffffffffffffffffffffff82169050919050565b6000611c0482611bd9565b9050919050565b611c1481611bf9565b8114611c1f57600080fd5b50565b600081359050611c3181611c0b565b92915050565b6000819050919050565b611c4a81611c37565b8114611c5557600080fd5b50565b600081359050611c6781611c41565b92915050565b60008060408385031215611c8457611c83611bcf565b5b6000611c9285828601611c22565b9250506020611ca385828601611c58565b9150509250929050565b60008115159050919050565b611cc281611cad565b82525050565b6000602082019050611cdd6000830184611cb9565b92915050565b611cec81611c37565b82525050565b6000602082019050611d076000830184611ce3565b92915050565b600080600060608486031215611d2657611d25611bcf565b5b6000611d3486828701611c22565b9350506020611d4586828701611c22565b9250506040611d5686828701611c58565b9150509250925092565b600060ff82169050919050565b611d7681611d60565b82525050565b6000602082019050611d916000830184611d6d565b92915050565b600060208284031215611dad57611dac611bcf565b5b6000611dbb84828501611c22565b91505092915050565b600080fd5b600080fd5b7f4e487b7100000000000000000000000000000000000000000000000000000000600052604160045260246000fd5b611e0682611b59565b810181811067ffffffffffffffff82111715611e2557611e24611dce565b5b80604052505050565b6000611e38611bc5565b9050611e448282611dfd565b919050565b600067ffffffffffffffff821115611e6457611e63611dce565b5b611e6d82611b59565b9050602081019050919050565b82818337600083830152505050565b6000611e9c611e9784611e49565b611e2e565b905082815260208101848484011115611eb857611eb7611dc9565b5b611ec3848285611e7a565b509392505050565b600082601f830112611ee057611edf611dc4565b5b8135611ef0848260208601611e89565b91505092915050565b60008060408385031215611f1057611f0f611bcf565b5b600083013567ffffffffffffffff811115611f2e57611f2d611bd4565b5b611f3a85828601611ecb565b925050602083013567ffffffffffffffff811115611f5b57611f5a611bd4565b5b611f6785828601611ecb565b9150509250929050565b600067ffffffffffffffff821115611f8c57611f8b611dce565b5b611f9582611b59565b9050602081019050919050565b6000611fb5611fb084611f71565b611e2e565b905082815260208101848484011115611fd157611fd0611dc9565b5b611fdc848285611e7a565b509392505050565b600082601f830112611ff957611ff8611dc4565b5b8135612009848260208601611fa2565b91505092915050565b6000806040838503121561202957612028611bcf565b5b600061203785828601611c22565b925050602083013567ffffffffffffffff81111561205857612057611bd4565b5b61206485828601611fe4565b9150509250929050565b6000819050919050565b6120818161206e565b82525050565b600060208201905061209c6000830184612078565b92915050565b6120ab81611bf9565b82525050565b60006020820190506120c660008301846120a2565b92915050565b600080604083850312156120e3576120e2611bcf565b5b60006120f185828601611c22565b925050602061210285828601611c22565b9150509250929050565b7f4e487b7100000000000000000000000000000000000000000000000000000000600052602260045260246000fd5b6000600282049050600182168061215357607f821691505b6020821081036121665761216561210c565b5b50919050565b7f46756e6374696f6e206d7573742062652063616c6c6564207468726f7567682060008201527f64656c656761746563616c6c0000000000000000000000000000000000000000602082015250565b60006121c8602c83611b1e565b91506121d38261216c565b604082019050919050565b600060208201905081810360008301526121f7816121bb565b9050919050565b7f46756e6374696f6e206d7573742062652063616c6c6564207468726f7567682060008201527f6163746976652070726f78790000000000000000000000000000000000000000602082015250565b600061225a602c83611b1e565b9150612265826121fe565b604082019050919050565b600060208201905081810360008301526122898161224d565b9050919050565b7f4e487b7100000000000000000000000000000000000000000000000000000000600052601160045260246000fd5b60006122ca82611c37565b91506122d583611c37565b92508282019050808211156122ed576122ec612290565b5b92915050565b7f496e697469616c697a61626c653a20636f6e747261637420697320616c72656160008201527f647920696e697469616c697a6564000000000000000000000000000000000000602082015250565b600061234f602e83611b1e565b915061235a826122f3565b604082019050919050565b6000602082019050818103600083015261237e81612342565b9050919050565b6000819050919050565b6000819050919050565b60006123b46123af6123aa84612385565b61238f565b611d60565b9050919050565b6123c481612399565b82525050565b60006020820190506123df60008301846123bb565b92915050565b7f555550535570677261646561626c653a206d757374206e6f742062652063616c60008201527f6c6564207468726f7567682064656c656761746563616c6c0000000000000000602082015250565b6000612441603883611b1e565b915061244c826123e5565b604082019050919050565b6000602082019050818103600083015261247081612434565b9050919050565b7f45524332303a2064656372656173656420616c6c6f77616e63652062656c6f7760008201527f207a65726f000000000000000000000000000000000000000000000000000000602082015250565b60006124d3602583611b1e565b91506124de82612477565b604082019050919050565b60006020820190508181036000830152612502816124c6565b9050919050565b7f4f776e61626c653a206e6577206f776e657220697320746865207a65726f206160008201527f6464726573730000000000000000000000000000000000000000000000000000602082015250565b6000612565602683611b1e565b915061257082612509565b604082019050919050565b6000602082019050818103600083015261259481612558565b9050919050565b7f45524332303a20617070726f76652066726f6d20746865207a65726f2061646460008201527f7265737300000000000000000000000000000000000000000000000000000000602082015250565b60006125f7602483611b1e565b91506126028261259b565b604082019050919050565b60006020820190508181036000830152612626816125ea565b9050919050565b7f45524332303a20617070726f766520746f20746865207a65726f20616464726560008201527f7373000000000000000000000000000000000000000000000000000000000000602082015250565b6000612689602283611b1e565b91506126948261262d565b604082019050919050565b600060208201905081810360008301526126b88161267c565b9050919050565b7f45524332303a20696e73756666696369656e7420616c6c6f77616e6365000000600082015250565b60006126f5601d83611b1e565b9150612700826126bf565b602082019050919050565b60006020820190508181036000830152612724816126e8565b9050919050565b7f45524332303a207472616e736665722066726f6d20746865207a65726f20616460008201527f6472657373000000000000000000000000000000000000000000000000000000602082015250565b6000612787602583611b1e565b91506127928261272b565b604082019050919050565b600060208201905081810360008301526127b68161277a565b9050919050565b7f45524332303a207472616e7366657220746f20746865207a65726f206164647260008201527f6573730000000000000000000000000000000000000000000000000000000000602082015250565b6000612819602383611b1e565b9150612824826127bd565b604082019050919050565b600060208201905081810360008301526128488161280c565b9050919050565b7f45524332303a207472616e7366657220616d6f756e742065786365656473206260008201527f616c616e63650000000000000000000000000000000000000000000000000000602082015250565b60006128ab602683611b1e565b91506128b68261284f565b604082019050919050565b600060208201905081810360008301526128da8161289e565b9050919050565b6128ea8161206e565b81146128f557600080fd5b50565b600081519050612907816128e1565b92915050565b60006020828403121561292357612922611bcf565b5b6000612931848285016128f8565b91505092915050565b7f45524331393637557067726164653a206e657720696d706c656d656e7461746960008201527f6f6e206973206e6f742055555053000000000000000000000000000000000000602082015250565b6000612996602e83611b1e565b91506129a18261293a565b604082019050919050565b600060208201905081810360008301526129c581612989565b9050919050565b7f45524331393637557067726164653a20756e737570706f727465642070726f7860008201527f6961626c65555549440000000000000000000000000000000000000000000000602082015250565b6000612a28602983611b1e565b9150612a33826129cc565b604082019050919050565b60006020820190508181036000830152612a5781612a1b565b9050919050565b7f496e697469616c697a61626c653a20636f6e7472616374206973206e6f74206960008201527f6e697469616c697a696e67000000000000000000000000000000000000000000602082015250565b6000612aba602b83611b1e565b9150612ac582612a5e565b604082019050919050565b60006020820190508181036000830152612ae981612aad565b9050919050565b7f4f776e61626c653a2063616c6c6572206973206e6f7420746865206f776e6572600082015250565b6000612b26602083611b1e565b9150612b3182612af0565b602082019050919050565b60006020820190508181036000830152612b5581612b19565b9050919050565b7f455243313936373a206e657720696d706c656d656e746174696f6e206973206e60008201527f6f74206120636f6e747261637400000000000000000000000000000000000000602082015250565b6000612bb8602d83611b1e565b9150612bc382612b5c565b604082019050919050565b60006020820190508181036000830152612be781612bab565b9050919050565b60008190508160005260206000209050919050565b60006020601f8301049050919050565b600082821b905092915050565b600060088302612c507fffffffffffffffffffffffffffffffffffffffffffffffffffffffffffffffff82612c13565b612c5a8683612c13565b95508019841693508086168417925050509392505050565b6000612c8d612c88612c8384611c37565b61238f565b611c37565b9050919050565b6000819050919050565b612ca783612c72565b612cbb612cb382612c94565b848454612c20565b825550505050565b600090565b612cd0612cc3565b612cdb818484612c9e565b505050565b5b81811015612cff57612cf4600082612cc8565b600181019050612ce1565b5050565b601f821115612d4457612d1581612bee565b612d1e84612c03565b81016020851015612d2d578190505b612d41612d3985612c03565b830182612ce0565b50505b505050565b600082821c905092915050565b6000612d6760001984600802612d49565b1980831691505092915050565b6000612d808383612d56565b9150826002028217905092915050565b612d9982611b13565b67ffffffffffffffff811115612db257612db1611dce565b5b612dbc825461213b565b612dc7828285612d03565b600060209050601f831160018114612dfa5760008415612de8578287015190505b612df28582612d74565b865550612e5a565b601f198416612e0886612bee565b60005b82811015612e3057848901518255600182019150602085019450602081019050612e0b565b86831015612e4d5784890151612e49601f891682612d56565b8355505b6001600288020188555050505b505050505050565b600081519050919050565b600081905092915050565b6000612e8382612e62565b612e8d8185612e6d565b9350612e9d818560208601611b2f565b80840191505092915050565b6000612eb58284612e78565b915081905092915050565b7f416464726573733a2063616c6c20746f206e6f6e2d636f6e7472616374000000600082015250565b6000612ef6601d83611b1e565b9150612f0182612ec0565b602082019050919050565b60006020820190508181036000830152612f2581612ee9565b905091905056fe416464726573733a206c6f772d6c6576656c2064656c65676174652063616c6c206661696c6564a2646970667358221220d4b4243e00637365b490621a57652b92d8f5fc4182b29667cd94531eff19af2264736f6c63430008130033",
  "linkReferences": {},
  "deployedLinkReferences": {}
}